:100000000C9463000C948B000C948B000C948B006C
:100010000C948B000C948B000C948B000C948B0034
:100020000C948B000C948B000C948B000C948B0024
:100030000C948B000C948B000C948B000C948B0014
:100040000C9422020C948B000C944F040C94920498
:100050000C948B000C948B000C948B000C948B00F4
:100060000C948B000C948B00000000070002010030
:100070000003040600000000000000000102040864
:100080001020408001020408102001020408102002
:10009000040404040404040402020202020203032E
:1000A00003030303000000002300260029000000D2
:1000B0000000250028002B0000000000240027007D
:1000C0002A0034014E0511241FBECFEFD8E0DEBF59
:1000D000CDBF11E0A0E0B1E0EAE3F4E102C0059099
:1000E0000D92A633B107D9F723E0A6E3B1E001C032
:1000F0001D92AF33B207E1F710E0C6ECD0E004C0C8
:100100002297FE010E94170AC23CD107C9F70E943C
:10011000A4050C941B0A0C94000064E071E085E9CE
:1001200092E00C940A0688EC80937C0080917A001F
:10013000806880937A0064E170E080E090E00E9443
:100140009B0280917A00806480937A0080917A008B
:1001500086FDFCCF609178007091790080E090E09E
:100160000E94D6082EEA37E242EA53E40E94D407FE
:1001700026EF38E24CE95FE30E943D08AB01BC0189
:1001800022E030E085E992E00C94C207CF93DF9340
:1001900060E0809102010E942503C0E0D1E061E0AF
:1001A00088810E94250360E088810E945E032DE81B
:1001B00030E048E853E160E070E082EE91E00E94B8
:1001C000CC0123E930E048E853E160E070E088E3E7
:1001D00091E00E94CC0140E855E260E070E085E9E2
:1001E00092E0DF91CF910C94CD0482EE91E00E94D9
:1001F0006F0188E391E00E946F01809102010E94EB
:10020000940390933701809336014AE050E0BC019B
:1002100085E992E00E94BF068091360190913701F6
:10022000019709F560ED77E080E090E00E949B0285
:10023000809102010E9494039093370180933601CC
:10024000019789F46DE071E085E992E00E940A0669
:1002500060E375E780E090E00E949B0261E080919E
:1002600000010C945E03089582EE91E00E943C012F
:1002700088E391E00C943C010F931F93CF93DF939D
:10028000EC018C0106551F4FCE010E94D5016196ED
:10029000C017D107C9F7DF91CF911F910F91089532
:1002A000CF92DF92EF92FF921F93CF93DF936A0179
:1002B0007B01EC011AE08881882329F0B701A601AF
:1002C000CE010E94D801115061961111F4CFDF9137
:1002D000CF911F91FF90EF90DF90CF900895CF9333
:1002E000DF93EC010E946C02AB01BC01CE01DF91F7
:1002F000CF910C94500120E0FC013081332331F088
:100300002F5F41962A30C1F78FEF0895822F08950D
:10031000CF92DF92EF92FF920F931F93CF93DF93D1
:1003200000D000D0CDB7DEB76C01790149835A8384
:100330006B837C830E947B01282F49815A816B81CA
:100340007C818F3FD9F081E12802C00CD11C11249F
:1003500081E0F60180834183528363837483168333
:100360000583F286E18629830E946C02F601638789
:10037000748785879687108A17862981822F0F9028
:100380000F900F900F90DF91CF911F910F91FF90E1
:10039000EF90DF90CF9008950F931F930FEF1FEF13
:1003A0000E9488011F910F910895FC011082089509
:1003B000CF92DF92EF92FF92CF93DF93EC016A012D
:1003C0007B018B859C85AD85BE859A01AB01281B81
:1003D000390B4A0B5B0BDA01C90149815A816B81E8
:1003E0007C8184179507A607B707D8F088818130EC
:1003F00019F0823029F00CC0E985FA85099508C00A
:1004000061E08885811160E068878F810E945E03CA
:10041000CB86DC86ED86FE868F8598890196988B43
:100420008F878D819E8197FD06C02F85388928177B
:1004300039070CF01882DF91CF91FF90EF90DF9099
:10044000CF9008951F920F920FB60F9211242F9301
:100450003F938F939F93AF93BF9380918D02909121
:100460008E02A0918F02B091900230918C0223E015
:10047000230F2D3720F40196A11DB11D05C026E8DC
:10048000230F0296A11DB11D20938C0280938D0233
:1004900090938E02A0938F02B0939002809191026C
:1004A00090919202A0919302B09194020196A11DA5
:1004B000B11D8093910290939202A0939302B09306
:1004C0009402BF91AF919F918F913F912F910F9087
:1004D0000FBE0F901F9018952FB7F89460918D0262
:1004E00070918E0280918F02909190022FBF08959B
:1004F0003FB7F8948091910290919202A09193025B
:10050000B091940226B5A89B05C02F3F19F0019623
:10051000A11DB11D3FBF6627782F892F9A2F620F2B
:10052000711D811D911D42E0660F771F881F991F65
:100530004A95D1F70895CF92DF92EF92FF92CF9331
:10054000DF936B017C010E947802EB01C114D1049E
:10055000E104F10479F00E9478026C1B7D0B683E87
:100560007340A0F381E0C81AD108E108F108C8512E
:10057000DC4FECCFDF91CF91FF90EF90DF90CF90E9
:100580000895789484B5826084BD84B5816084BD0B
:1005900085B5826085BD85B5816085BDEEE6F0E0FC
:1005A000808181608083E1E8F0E010828081826058
:1005B0008083808181608083E0E8F0E080818160D9
:1005C0008083E1EBF0E0808184608083E0EBF0E009
:1005D000808181608083EAE7F0E0808184608083AD
:1005E0008081826080838081816080838081806857
:1005F00080831092C1000895833081F028F4813007
:1006000099F08230A1F008958630A9F08730B9F0D2
:100610008430D1F4809180008F7D03C08091800070
:100620008F7780938000089584B58F7702C084B55A
:100630008F7D84BD08958091B0008F7703C0809135
:10064000B0008F7D8093B0000895CF93DF9390E04A
:10065000FC01E458FF4F2491FC01E057FF4F8491C7
:10066000882349F190E0880F991FFC01E854FF4F5F
:10067000A591B49182559F4FFC01C591D4919FB72C
:10068000611108C0F8948C91209582238C93888105
:1006900082230AC0623051F4F8948C91322F309545
:1006A00083238C938881822B888304C0F8948C9157
:1006B000822B8C939FBFDF91CF9108950F931F934F
:1006C000CF93DF931F92CDB7DEB7282F30E0F9012B
:1006D000E859FF4F8491F901E458FF4F1491F90153
:1006E000E057FF4F04910023C9F0882321F069836C
:1006F0000E94FC026981E02FF0E0EE0FFF1FE2553F
:10070000FF4FA591B4919FB7F8948C91611103C0EC
:100710001095812301C0812B8C939FBF0F90DF9197
:10072000CF911F910F910895CF93DF93282F30E041
:10073000F901E859FF4F8491F901E458FF4FD49132
:10074000F901E057FF4FC491CC2391F081110E9431
:10075000FC02EC2FF0E0EE0FFF1FEC55FF4FA591D0
:10076000B4912C912D2381E090E021F480E002C02F
:1007700080E090E0DF91CF910895FC0124853585DC
:10078000F901E05CFF4F80819181329620813181B7
:10079000821B930B8F7399270895FC01848595859F
:1007A000FC01E05CFF4F4081518132962081318114
:1007B0004217530741F00190F081E02DE80FF91F37
:1007C000808190E008958FEF9FEF0895FC0184856C
:1007D0009585FC01E05CFF4F40815181329620817C
:1007E00031814217530779F0A081B181A80FB91F59
:1007F0008C91208131812F5F3F4F2F7333273183BD
:10080000208390E008958FEF9FEF0895FC0181A170
:10081000882329F0A489B5898C9186FFFBCF11A28A
:100820000895CF93DF93FC0126853785D901A05C1D
:10083000BF4F8D919C91119701968F739927E90174
:10084000CE5BDF4F4881598184179507D9F30D900E
:10085000BC91A02DA20FB31F6C93A685B785A05C99
:10086000BF4F11969C938E93A689B7892C9181E0F6
:1008700090E0078C02C0880F991F0A94E2F7282B9A
:100880002C9381E081A30488F589E02D8081806428
:10089000808381E090E0DF91CF91089508951F92C9
:1008A0000F920FB60F9211242F933F934F938F9374
:1008B0009F93EF93FF938091C00082FD1CC04091F5
:1008C000C60080913B0390913C0301968F7399275A
:1008D00020913D0330913E038217930771F0E09120
:1008E0003B03F0913C03E550FD4F408390933C0364
:1008F00080933B0302C08091C600FF91EF919F91CE
:100900008F914F913F912F910F900FBE0F901F909D
:10091000189585E992E00E94BD03892B11F00C9493
:100920004E0408951F920F920FB60F9211242F9329
:100930003F938F939F93EF93FF932091F702309112
:10094000F8028091F9029091FA022817390731F4E0
:100950008091C1008F7D8093C10014C0E091F902A5
:10096000F091FA02E954FD4F20818091F9029091B3
:10097000FA0201968F7399279093FA028093F902F5
:100980002093C600FF91EF919F918F913F912F91FE
:100990000F900FBE0F901F901895CF92DF92EF929D
:1009A000FF92CF93DF93EC016A017B01411581EE49
:1009B000580761057105F9F0EC89FD8981E090E047
:1009C00008A002C0880F991F0A94E2F7808360E0B4
:1009D00079E08DE390E0A70196010E94F309215090
:1009E00031094109510956954795379527952115A4
:1009F00080E1380798F0EC89FD89108260E874E89E
:100A00008EE190E0A70196010E94F309215031097F
:100A1000410951095695479537952795E889F989F0
:100A20003083EA89FB89208319A2EE89FF894081FE
:100A300081E090E09C010C8C02C0220F331F0A94CD
:100A4000E2F7422B4083EE89FF8940819C010D8CA7
:100A500002C0220F331F0A94E2F7422B4083EE8933
:100A6000FF8940819C010E8C02C0220F331F0A9423
:100A7000E2F7422B4083EE89FF8920810F8C02C070
:100A8000880F991F0A94E2F7809582238083DF9173
:100A9000CF91FF90EF90DF90CF9008951092980241
:100AA0001092970288EE93E0A0E0B0E08093990264
:100AB00090939A02A0939B02B0939C028CE191E0E8
:100AC00090939602809395028BEF92E09093A2020E
:100AD0008093A10287EB92E09093A4028093A302FB
:100AE00085EC90E09093A6028093A50284EC90E0C0
:100AF0009093A8028093A70280EC90E09093AA02C2
:100B00008093A90281EC90E09093AC028093AB02B9
:100B100082EC90E09093AE028093AD0286EC90E080
:100B20009093B0028093AF0284E08093B10283E09F
:100B30008093B20287E08093B30285E08093B40291
:100B400081E08093B50208950E94C1020E94C60010
:100B5000C9E8D4E00E94F5002097E1F30E948904DF
:100B6000F9CFCF92DF92EF92FF920F931F93CF9323
:100B7000DF936C017A01EB01E60EF71E00E010E056
:100B8000CE15DF0561F06991D601ED91FC910190E0
:100B9000F081E02DC6010995080F191FF1CFC8019A
:100BA000DF91CF911F910F91FF90EF90DF90CF9049
:100BB00008956115710581F0DB010D900020E9F7C2
:100BC000AD0141505109461B570BDC01ED91FC91E1
:100BD0000280F381E02D099480E090E00895DC012B
:100BE000ED91FC910190F081E02D09940F931F93FA
:100BF000CF93DF93EC016DE00E94EF058C016AE07A
:100C0000CE010E94EF05800F911FDF91CF911F91C0
:100C10000F9108950F931F93CF93DF93EC010E94E0
:100C2000D9058C01CE010E94F605800F911FDF913E
:100C3000CF911F910F9108958F929F92AF92BF9283
:100C4000CF92DF92EF92FF920F931F93CF93DF9398
:100C5000CDB7DEB7A1970FB6F894DEBF0FBECDBFFC
:100C60007C01C42EE52FCB01D22E19A221E02D1537
:100C700010F02AE0D22E8E010F5D1F4F8D2C912C8B
:100C8000A12CB12C6C2D7E2FA50194010E94F3099B
:100C90008C2DD29E80191124015011098A3014F430
:100CA000805D01C0895CF801808321153105410513
:100CB000510521F0C22EE32FCA01E4CFB801C701CC
:100CC0000E94D905A1960FB6F894DEBF0FBECDBF26
:100CD000DF91CF911F910F91FF90EF90DF90CF9018
:100CE000BF90AF909F908F900895CF92DF92EF9238
:100CF000FF920F931F93CF93DF93EC016A017B0167
:100D00002115310579F4E881F9810190F081E02D18
:100D1000642FDF91CF911F910F91FF90EF90DF90A3
:100D2000CF9009942A303105E9F477FF1AC06DE2BB
:100D30000E94EF058C0144275527BA014C195D0923
:100D40006E097F092AE0CE010E941C06800F911FC8
:100D5000DF91CF911F910F91FF90EF90DF90CF9097
:100D600008952AE0B701A601CE01DF91CF911F912E
:100D70000F91FF90EF90DF90CF900C941C060F9393
:100D80001F93CF93DF93EC019A01AB01662757FDC8
:100D90006095762F0E9475068C01CE010E94F605A3
:100DA000800F911FDF91CF911F910F9108954F9266
:100DB0005F926F927F928F929F92AF92BF92CF92EB
:100DC000DF92EF92FF920F931F93CF93DF93EC018B
:100DD0006A017B01B22E9A01AB01C701B6010E94E4
:100DE000EF09882319F068E271E027C02601370176
:100DF000E89477F82FEF3FEF4FE75FE7C301B201C9
:100E00000E94EF0981110DC02FEF3FEF4FE75FE721
:100E1000C301B2010E94390818161CF46CE271E09B
:100E20000CC02FEF3FEF4FE75FE4C701B6010E9410
:100E300088091816ACF460E371E0CE01DF91CF9120
:100E40001F910F91FF90EF90DF90CF90BF90AF90E8
:100E50009F908F907F906F905F904F900C94D905EA
:100E60002FEF3FEF4FE75FECC701B6010E94390853
:100E700087FDE1CF20E030E0A901C701B6010E9463
:100E8000390887FF0AC06DE2CE010E94EF058C0190
:100E9000F7FAF094F7F8F09402C000E010E0A12C0B
:100EA00060E070E080E09FE3AB1441F020E030E0D0
:100EB00040E251E40E943D08A394F6CF9B01AC01AF
:100EC000C701B6010E94D5076B017C010E94AA08E8
:100ED0002B013C010E94D6089B01AC01C701B60161
:100EE0000E94D4076B017C012AE0B301A201CE016C
:100EF0000E941C06080F191FBB2039F064E371E043
:100F0000CE010E94D905080F191F7B2C772041F1D3
:100F100020E030E040E251E4C701B6010E948C09B4
:100F20006B017C010E94A5084B01AA2497FCA094A8
:100F3000BA2C2AE030E0B501A401CE010E9475066A
:100F4000080F191FC501B4010E94D8089B01AC010C
:100F5000C701B6010E94D4076B017C017A94D6CFF9
:100F6000C801DF91CF911F910F91FF90EF90DF901B
:100F7000CF90BF90AF909F908F907F906F905F9039
:100F80004F9008950F931F93CF93DF93EC010E942E
:100F9000D7068C01CE010E94F605800F911FDF91CC
:100FA000CF911F910F9108955058BB27AA270ED0BB
:100FB00075C166D130F06BD120F031F49F3F11F450
:100FC0001EF45BC10EF4E095E7FB51C1E92F77D128
:100FD00080F3BA17620773078407950718F071F456
:100FE0009EF58FC10EF4E0950B2EBA2FA02D0B01AC
:100FF000B90190010C01CA01A0011124FF27591B5E
:1010000099F0593F50F4503E68F11A16F040A22F63
:10101000232F342F4427585FF3CF469537952795D4
:10102000A795F0405395C9F77EF41F16BA0B620BD3
:10103000730B840BBAF09150A1F0FF0FBB1F661F1A
:10104000771F881FC2F70EC0BA0F621F731F841F5D
:1010500048F4879577956795B795F7959E3F08F083
:10106000B3CF9395880F08F09927EE0F9795879542
:101070000895D9D008F481E008950CD00FC107D1AC
:1010800040F0FED030F021F45F3F19F0F0C0511174
:1010900039C1F3C014D198F39923C9F35523B1F39F
:1010A000951B550BBB27AA2762177307840738F0D7
:1010B0009F5F5F4F220F331F441FAA1FA9F333D036
:1010C0000E2E3AF0E0E830D091505040E695001CEA
:1010D000CAF729D0FE2F27D0660F771F881FBB1FA6
:1010E000261737074807AB07B0E809F0BB0B802D80
:1010F000BF01FF2793585F4F2AF09E3F510568F0CC
:10110000B6C000C15F3FECF3983EDCF3869577955F
:101110006795B795F7959F5FC9F7880F911D9695CD
:10112000879597F90895E1E0660F771F881FBB1F29
:10113000621773078407BA0720F0621B730B840BD6
:10114000BA0BEE1F88F7E095089504D06894B111AA
:10115000D9C00895BCD088F09F5790F0B92F992737
:10116000B751A0F0D1F0660F771F881F991F1AF0B2
:10117000BA95C9F712C0B13081F0C3D0B1E008957B
:10118000C0C0672F782F8827B85F39F0B93FCCF3FC
:10119000869577956795B395D9F73EF490958095A8
:1011A000709561957F4F8F4F9F4F0895E89409C0C8
:1011B00097FB3EF490958095709561957F4F8F4F8A
:1011C0009F4F9923A9F0F92F96E9BB279395F695A0
:1011D000879577956795B795F111F8CFFAF4BB0F1E
:1011E00011F460FF1BC06F5F7F4F8F4F9F4F16C082
:1011F000882311F096E911C0772321F09EE8872F0C
:10120000762F05C0662371F096E8862F70E060E0C7
:101210002AF09A95660F771F881FDAF7880F969540
:10122000879597F90895990F0008550FAA0BE0E8E4
:10123000FEEF16161706E807F907C0F01216130698
:10124000E407F50798F0621B730B840B950B39F4D8
:101250000A2661F0232B242B252B21F408950A263E
:1012600009F4A140A6958FEF811D811D089597F97E
:101270009F6780E870E060E008959FEF80EC08953C
:1012800000240A9416161706180609060895002465
:101290000A9412161306140605060895092E0394DF
:1012A000000C11F4882352F0BB0F40F4BF2B11F453
:1012B00060FF04C06F5F7F4F8F4F9F4F089557FDB2
:1012C0009058440F551F59F05F3F71F04795880FB4
:1012D00097FB991F61F09F3F79F08795089512164B
:1012E00013061406551FF2CF4695F1DF08C01616F7
:1012F00017061806991FF1CF8695710561050894A8
:101300000895E894BB2766277727CB0197F90895BE
:101310008ADF08F48FEF08950BD0C0CFB1DF28F03B
:10132000B6DF18F0952309F0A2CFA7CF1124EACF9A
:10133000C6DFA0F3959FD1F3950F50E0551F629F34
:10134000F001729FBB27F00DB11D639FAA27F00D1E
:10135000B11DAA1F649F6627B00DA11D661F829F45
:101360002227B00DA11D621F739FB00DA11D621F2A
:10137000839FA00D611D221F749F3327A00D611D47
:10138000231F849F600D211D822F762F6A2F112429
:101390009F5750408AF0E1F088234AF0EE0FFF1F7C
:1013A000BB1F661F771F881F91505040A9F79E3FB3
:1013B000510570F05CCFA6CF5F3FECF3983EDCF3B5
:1013C000869577956795B795F795E7959F5FC1F7F0
:1013D000FE2B880F911D9695879597F9089523DF29
:1013E000880B990B0895A1E21A2EAA1BBB1BFD01C5
:1013F0000DC0AA1FBB1FEE1FFF1FA217B307E407F4
:10140000F50720F0A21BB30BE40BF50B661F771F4B
:10141000881F991F1A9469F760957095809590952B
:101420009B01AC01BD01CF010895EE0FFF1F059098
:0A143000F491E02D0994F894FFCF29
:10143A000200040048454152543A6F6E0048414C3C
:10144A00543A617272657400000000001104B1051B
:10145A00BD03E603CD0306046E616E00696E660085
:06146A006F7666002E0003
:00000001FF
